{
    "contractName": "SimpleStorage",
    "abi": [
        {
            "inputs": [],
            "name": "Baddext",
            "outputs": [
                {
                    "internalType": "uint256",
                    "name": "favoriteNumber",
                    "type": "uint256"
                },
                {
                    "internalType": "string",
                    "name": "name",
                    "type": "string"
                }
            ],
            "stateMutability": "view",
            "type": "function"
        },
        {
            "inputs": [],
            "name": "Jaz",
            "outputs": [
                {
                    "internalType": "uint256",
                    "name": "favoriteNumber",
                    "type": "uint256"
                },
                {
                    "internalType": "string",
                    "name": "name",
                    "type": "string"
                }
            ],
            "stateMutability": "view",
            "type": "function"
        },
        {
            "inputs": [],
            "name": "Noel",
            "outputs": [
                {
                    "internalType": "uint256",
                    "name": "favoriteNumber",
                    "type": "uint256"
                },
                {
                    "internalType": "string",
                    "name": "name",
                    "type": "string"
                }
            ],
            "stateMutability": "view",
            "type": "function"
        },
        {
            "inputs": [
                {
                    "internalType": "string",
                    "name": "_name",
                    "type": "string"
                },
                {
                    "internalType": "uint256",
                    "name": "_favoriteNumber",
                    "type": "uint256"
                }
            ],
            "name": "addPerson",
            "outputs": [],
            "stateMutability": "nonpayable",
            "type": "function"
        },
        {
            "inputs": [
                {
                    "internalType": "uint256",
                    "name": "",
                    "type": "uint256"
                }
            ],
            "name": "bigBros",
            "outputs": [
                {
                    "internalType": "uint256",
                    "name": "favoriteNumber",
                    "type": "uint256"
                },
                {
                    "internalType": "string",
                    "name": "name",
                    "type": "string"
                }
            ],
            "stateMutability": "view",
            "type": "function"
        },
        {
            "inputs": [
                {
                    "internalType": "string",
                    "name": "",
                    "type": "string"
                }
            ],
            "name": "nameToFavoriteNumber",
            "outputs": [
                {
                    "internalType": "uint256",
                    "name": "",
                    "type": "uint256"
                }
            ],
            "stateMutability": "view",
            "type": "function"
        },
        {
            "inputs": [],
            "name": "retrieve",
            "outputs": [
                {
                    "internalType": "uint256",
                    "name": "",
                    "type": "uint256"
                }
            ],
            "stateMutability": "view",
            "type": "function"
        },
        {
            "inputs": [
                {
                    "internalType": "uint256",
                    "name": "_favoriteNumber",
                    "type": "uint256"
                }
            ],
            "name": "store",
            "outputs": [],
            "stateMutability": "nonpayable",
            "type": "function"
        },
        {
            "inputs": [],
            "name": "userFavoriteNumber",
            "outputs": [
                {
                    "internalType": "uint256",
                    "name": "",
                    "type": "uint256"
                }
            ],
            "stateMutability": "view",
            "type": "function"
        }
    ],
    "bytecode": "60636080818152610100604052600360c0818152622530bd60e91b60e05260a08190529281559091600490610034908261017d565b5050604080518082018252601781528151808301909252600782526610985919195e1d60ca1b60208381019190915281018290528051600590815590925090600690610080908261017d565b50506040805180820182526015815281518083019092526004825263139bd95b60e21b602083810191909152810182905280516007908155909250906008906100c9908261017d565b5050503480156100d857600080fd5b5061023c565b634e487b7160e01b600052604160045260246000fd5b600181811c9082168061010857607f821691505b60208210810361012857634e487b7160e01b600052602260045260246000fd5b50919050565b601f82111561017857600081815260208120601f850160051c810160208610156101555750805b601f850160051c820191505b8181101561017457828155600101610161565b5050505b505050565b81516001600160401b03811115610196576101966100de565b6101aa816101a484546100f4565b8461012e565b602080601f8311600181146101df57600084156101c75750858301515b600019600386901b1c1916600185901b178555610174565b600085815260208120601f198616915b8281101561020e578886015182559484019460019091019084016101ef565b508582101561022c5787850151600019600388901b60f8161c191681555b5050505050600190811b01905550565b61061c8061024b6000396000f3fe608060405234801561001057600080fd5b50600436106100935760003560e01c80636f760f41116100665780636f760f41146100e65780638bab8dd5146100f9578063e428897814610124578063e8d22bcc1461012d578063f00285ee1461013557600080fd5b80632a2a796a146100985780632e64cec1146100b75780635a37958b146100c95780636057361d146100d1575b600080fd5b6100a0610148565b6040516100ae929190610309565b60405180910390f35b6000545b6040519081526020016100ae565b6100a06101df565b6100e46100df366004610343565b600055565b005b6100e46100f43660046103ff565b6101f3565b6100bb610107366004610444565b805160208183018101805160028252928201919093012091525481565b6100bb60005481565b6100a061029c565b6100a0610143366004610343565b6102b0565b600580546006805491929161015c90610481565b80601f016020809104026020016040519081016040528092919081815260200182805461018890610481565b80156101d55780601f106101aa576101008083540402835291602001916101d5565b820191906000526020600020905b8154815290600101906020018083116101b857829003601f168201915b5050505050905082565b600780546008805491929161015c90610481565b6040805180820190915281815260208101838152600180548082018255600091909152825160029091027fb10e2d527612073b26eecdfd717e6a320cf44b4afac2b0732d9fcbe2b7fa0cf68101918255915190917fb10e2d527612073b26eecdfd717e6a320cf44b4afac2b0732d9fcbe2b7fa0cf70190610274908261050a565b5050508060028360405161028891906105ca565b908152604051908190036020019020555050565b600380546004805491929161015c90610481565b600181815481106102c057600080fd5b6000918252602090912060029091020180546001820180549193509061015c90610481565b60005b838110156103005781810151838201526020016102e8565b50506000910152565b828152604060208201526000825180604084015261032e8160608501602087016102e5565b601f01601f1916919091016060019392505050565b60006020828403121561035557600080fd5b5035919050565b634e487b7160e01b600052604160045260246000fd5b600082601f83011261038357600080fd5b813567ffffffffffffffff8082111561039e5761039e61035c565b604051601f8301601f19908116603f011681019082821181831017156103c6576103c661035c565b816040528381528660208588010111156103df57600080fd5b836020870160208301376000602085830101528094505050505092915050565b6000806040838503121561041257600080fd5b823567ffffffffffffffff81111561042957600080fd5b61043585828601610372565b95602094909401359450505050565b60006020828403121561045657600080fd5b813567ffffffffffffffff81111561046d57600080fd5b61047984828501610372565b949350505050565b600181811c9082168061049557607f821691505b6020821081036104b557634e487b7160e01b600052602260045260246000fd5b50919050565b601f82111561050557600081815260208120601f850160051c810160208610156104e25750805b601f850160051c820191505b81811015610501578281556001016104ee565b5050505b505050565b815167ffffffffffffffff8111156105245761052461035c565b610538816105328454610481565b846104bb565b602080601f83116001811461056d57600084156105555750858301515b600019600386901b1c1916600185901b178555610501565b600085815260208120601f198616915b8281101561059c5788860151825594840194600190910190840161057d565b50858210156105ba5787850151600019600388901b60f8161c191681555b5050505050600190811b01905550565b600082516105dc8184602087016102e5565b919091019291505056fea26469706673582212205a02dbe06073986d9f048436cc71a6e5fb2f74ee7343078131422674dc3e892e64736f6c63430008130033",
    "sourcePath": "/home/jaz/Documents/ACADEMICS/SOLIDITY/MASTERY/foundry-f23/foundry-f23-SimpleStorage/foundry-f23/src/SimpleStorage.sol",
    "compiler": {
        "name": "solc",
        "version": "0.8.19+commit.7dd6d404"
    },
    "functionHashes": {
        "Baddext()": "2a2a796a",
        "Jaz()": "e8d22bcc",
        "Noel()": "5a37958b",
        "addPerson(string,uint256)": "6f760f41",
        "bigBros(uint256)": "f00285ee",
        "nameToFavoriteNumber(string)": "8bab8dd5",
        "retrieve()": "2e64cec1",
        "store(uint256)": "6057361d",
        "userFavoriteNumber()": "e4288978"
    },
    "gasEstimates": {
        "creation": {
            "codeDepositCost": "312800",
            "executionCost": "infinite",
            "totalCost": "infinite"
        },
        "external": {
            "Baddext()": "infinite",
            "Jaz()": "infinite",
            "Noel()": "infinite",
            "addPerson(string,uint256)": "infinite",
            "bigBros(uint256)": "infinite",
            "nameToFavoriteNumber(string)": "infinite",
            "retrieve()": "2304",
            "store(uint256)": "22379",
            "userFavoriteNumber()": "2339"
        }
    }
}