{
    "contractName": "Ballot",
    "abi": [
        {
            "inputs": [
                {
                    "internalType": "bytes32[]",
                    "name": "proposalNames",
                    "type": "bytes32[]"
                }
            ],
            "stateMutability": "nonpayable",
            "type": "constructor"
        },
        {
            "inputs": [],
            "name": "chairperson",
            "outputs": [
                {
                    "internalType": "address",
                    "name": "",
                    "type": "address"
                }
            ],
            "stateMutability": "view",
            "type": "function"
        },
        {
            "inputs": [
                {
                    "internalType": "address",
                    "name": "to",
                    "type": "address"
                }
            ],
            "name": "delegate",
            "outputs": [],
            "stateMutability": "nonpayable",
            "type": "function"
        },
        {
            "inputs": [
                {
                    "internalType": "address",
                    "name": "voter",
                    "type": "address"
                }
            ],
            "name": "giveRightToVote",
            "outputs": [],
            "stateMutability": "nonpayable",
            "type": "function"
        },
        {
            "inputs": [
                {
                    "internalType": "uint256",
                    "name": "",
                    "type": "uint256"
                }
            ],
            "name": "proposals",
            "outputs": [
                {
                    "internalType": "bytes32",
                    "name": "name",
                    "type": "bytes32"
                },
                {
                    "internalType": "uint256",
                    "name": "voteCount",
                    "type": "uint256"
                }
            ],
            "stateMutability": "view",
            "type": "function"
        },
        {
            "inputs": [
                {
                    "internalType": "uint256",
                    "name": "proposal",
                    "type": "uint256"
                }
            ],
            "name": "vote",
            "outputs": [],
            "stateMutability": "nonpayable",
            "type": "function"
        },
        {
            "inputs": [
                {
                    "internalType": "address",
                    "name": "",
                    "type": "address"
                }
            ],
            "name": "voters",
            "outputs": [
                {
                    "internalType": "uint256",
                    "name": "weight",
                    "type": "uint256"
                },
                {
                    "internalType": "bool",
                    "name": "voted",
                    "type": "bool"
                },
                {
                    "internalType": "address",
                    "name": "delegate",
                    "type": "address"
                },
                {
                    "internalType": "uint256",
                    "name": "vote",
                    "type": "uint256"
                }
            ],
            "stateMutability": "view",
            "type": "function"
        },
        {
            "inputs": [],
            "name": "winnerName",
            "outputs": [
                {
                    "internalType": "bytes32",
                    "name": "winnerName_",
                    "type": "bytes32"
                }
            ],
            "stateMutability": "view",
            "type": "function"
        },
        {
            "inputs": [],
            "name": "winningProposal",
            "outputs": [
                {
                    "internalType": "uint256",
                    "name": "winningProposal_",
                    "type": "uint256"
                }
            ],
            "stateMutability": "view",
            "type": "function"
        }
    ],
    "bytecode": "608060405234801561001057600080fd5b506040516109c83803806109c883398101604081905261002f916100e2565b600080546001600160a01b03191633908117825581526001602081905260408220555b81518110156100c5576002604051806040016040528084848151811061007a5761007a61019f565b602090810291909101810151825260009181018290528354600181810186559483529181902083516002909302019182559190910151910155806100bd816101b5565b915050610052565b50506101dc565b634e487b7160e01b600052604160045260246000fd5b600060208083850312156100f557600080fd5b82516001600160401b038082111561010c57600080fd5b818501915085601f83011261012057600080fd5b815181811115610132576101326100cc565b8060051b604051601f19603f83011681018181108582111715610157576101576100cc565b60405291825284820192508381018501918883111561017557600080fd5b938501935b828510156101935784518452938501939285019261017a565b98975050505050505050565b634e487b7160e01b600052603260045260246000fd5b6000600182016101d557634e487b7160e01b600052601160045260246000fd5b5060010190565b6107dd806101eb6000396000f3fe608060405234801561001057600080fd5b50600436106100885760003560e01c8063609ff1bd1161005b578063609ff1bd1461010d5780639e7b8d6114610123578063a3ec138d14610136578063e2ba53f0146101a757600080fd5b80630121b93f1461008d578063013cf08b146100a25780632e4176cf146100cf5780635c19a95c146100fa575b600080fd5b6100a061009b366004610700565b6101af565b005b6100b56100b0366004610700565b6102a9565b604080519283526020830191909152015b60405180910390f35b6000546100e2906001600160a01b031681565b6040516001600160a01b0390911681526020016100c6565b6100a0610108366004610719565b6102d7565b610115610538565b6040519081526020016100c6565b6100a0610131366004610719565b6105b5565b610178610144366004610719565b600160208190526000918252604090912080549181015460029091015460ff82169161010090046001600160a01b03169084565b6040516100c6949392919093845291151560208401526001600160a01b03166040830152606082015260800190565b6101156106cd565b336000908152600160205260408120805490910361020b5760405162461bcd60e51b8152602060048201526014602482015273486173206e6f20726967687420746f20766f746560601b60448201526064015b60405180910390fd5b600181015460ff16156102515760405162461bcd60e51b815260206004820152600e60248201526d20b63932b0b23c903b37ba32b21760911b6044820152606401610202565b6001818101805460ff191690911790556002808201839055815481549091908490811061028057610280610749565b906000526020600020906002020160010160008282546102a09190610775565b90915550505050565b600281815481106102b957600080fd5b60009182526020909120600290910201805460019091015490915082565b33600090815260016020526040812080549091036103375760405162461bcd60e51b815260206004820152601960248201527f596f752068617665206e6f20726967687420746f20766f7465000000000000006044820152606401610202565b600181015460ff16156103815760405162461bcd60e51b81526020600482015260126024820152712cb7ba9030b63932b0b23c903b37ba32b21760711b6044820152606401610202565b336001600160a01b038316036103d95760405162461bcd60e51b815260206004820152601e60248201527f53656c662d64656c65676174696f6e20697320646973616c6c6f7765642e00006044820152606401610202565b6001600160a01b03828116600090815260016020819052604090912001546101009004161561047d576001600160a01b03918216600090815260016020819052604090912001546101009004909116903382036104785760405162461bcd60e51b815260206004820152601960248201527f466f756e64206c6f6f7020696e2064656c65676174696f6e2e000000000000006044820152606401610202565b6103d9565b6001600160a01b03821660009081526001602081905260409091208054909111156104a757600080fd5b600182810180546001600160a81b0319166101006001600160a01b03871602178217905581015460ff1615610519578154600282810154815481106104ee576104ee610749565b9060005260206000209060020201600101600082825461050e9190610775565b909155506105339050565b81548154829060009061052d908490610775565b90915550505b505050565b600080805b6002548110156105b057816002828154811061055b5761055b610749565b906000526020600020906002020160010154111561059e576002818154811061058657610586610749565b90600052602060002090600202016001015491508092505b806105a88161078e565b91505061053d565b505090565b6000546001600160a01b031633146106205760405162461bcd60e51b815260206004820152602860248201527f4f6e6c79206368616972706572736f6e2063616e2067697665207269676874206044820152673a37903b37ba329760c11b6064820152608401610202565b6001600160a01b0381166000908152600160208190526040909120015460ff161561068d5760405162461bcd60e51b815260206004820152601860248201527f54686520766f74657220616c726561647920766f7465642e00000000000000006044820152606401610202565b6001600160a01b038116600090815260016020526040902054156106b057600080fd5b6001600160a01b0316600090815260016020819052604090912055565b600060026106d9610538565b815481106106e9576106e9610749565b906000526020600020906002020160000154905090565b60006020828403121561071257600080fd5b5035919050565b60006020828403121561072b57600080fd5b81356001600160a01b038116811461074257600080fd5b9392505050565b634e487b7160e01b600052603260045260246000fd5b634e487b7160e01b600052601160045260246000fd5b808201808211156107885761078861075f565b92915050565b6000600182016107a0576107a061075f565b506001019056fea26469706673582212203362e8341b2dbd47116c67838308ce083aaa0de02dfb40b27b3e64709c23c9e564736f6c63430008130033",
    "sourcePath": "/home/jaz/Documents/ACADEMICS/SOLIDITY/PROJECTS/VOTING-SYSTEM/BallotPaper.sol",
    "compiler": {
        "name": "solc",
        "version": "0.8.19+commit.7dd6d404"
    },
    "functionHashes": {
        "chairperson()": "2e4176cf",
        "delegate(address)": "5c19a95c",
        "giveRightToVote(address)": "9e7b8d61",
        "proposals(uint256)": "013cf08b",
        "vote(uint256)": "0121b93f",
        "voters(address)": "a3ec138d",
        "winnerName()": "e2ba53f0",
        "winningProposal()": "609ff1bd"
    },
    "gasEstimates": {
        "creation": {
            "codeDepositCost": "402600",
            "executionCost": "infinite",
            "totalCost": "infinite"
        },
        "external": {
            "chairperson()": "2382",
            "delegate(address)": "infinite",
            "giveRightToVote(address)": "29057",
            "proposals(uint256)": "6743",
            "vote(uint256)": "79515",
            "voters(address)": "6895",
            "winnerName()": "infinite",
            "winningProposal()": "infinite"
        }
    }
}