{
    "contractName": "ERC20Token",
    "abi": [
        {
            "inputs": [
                {
                    "internalType": "address",
                    "name": "",
                    "type": "address"
                }
            ],
            "name": "balances",
            "outputs": [
                {
                    "internalType": "uint256",
                    "name": "",
                    "type": "uint256"
                }
            ],
            "stateMutability": "view",
            "type": "function"
        },
        {
            "inputs": [],
            "name": "mint",
            "outputs": [],
            "stateMutability": "nonpayable",
            "type": "function"
        },
        {
            "inputs": [],
            "name": "name",
            "outputs": [
                {
                    "internalType": "string",
                    "name": "",
                    "type": "string"
                }
            ],
            "stateMutability": "view",
            "type": "function"
        }
    ],
    "bytecode": "608060405234801561001057600080fd5b50610261806100206000396000f3fe608060405234801561001057600080fd5b50600436106100415760003560e01c806306fdde03146100465780631249c58b1461006457806327e235e31461006e575b600080fd5b61004e61009c565b60405161005b919061014c565b60405180910390f35b61006c61012a565b005b61008e61007c36600461019a565b60016020526000908152604090205481565b60405190815260200161005b565b600080546100a9906101ca565b80601f01602080910402602001604051908101604052809291908181526020018280546100d5906101ca565b80156101225780601f106100f757610100808354040283529160200191610122565b820191906000526020600020905b81548152906001019060200180831161010557829003601f168201915b505050505081565b33600090815260016020526040812080549161014583610204565b9190505550565b600060208083528351808285015260005b818110156101795785810183015185820160400152820161015d565b506000604082860101526040601f19601f8301168501019250505092915050565b6000602082840312156101ac57600080fd5b81356001600160a01b03811681146101c357600080fd5b9392505050565b600181811c908216806101de57607f821691505b6020821081036101fe57634e487b7160e01b600052602260045260246000fd5b50919050565b60006001820161022457634e487b7160e01b600052601160045260246000fd5b506001019056fea264697066735822122005e94257a714aab8cfd21c6f9e8f366dd4ece64e8958f26de871e6a706081e3464736f6c63430008130033",
    "sourcePath": "/home/jaz/Documents/ACADEMICS/SOLIDITY/ADVANCING/MyContract.sol",
    "compiler": {
        "name": "solc",
        "version": "0.8.19+commit.7dd6d404"
    },
    "functionHashes": {
        "balances(address)": "27e235e3",
        "mint()": "1249c58b",
        "name()": "06fdde03"
    },
    "gasEstimates": {
        "creation": {
            "codeDepositCost": "121800",
            "executionCost": "171",
            "totalCost": "121971"
        },
        "external": {
            "balances(address)": "2506",
            "mint()": "24495",
            "name()": "infinite"
        }
    }
}