{
    "contractName": "MyContract",
    "abi": [
        {
            "inputs": [],
            "name": "data",
            "outputs": [
                {
                    "internalType": "uint256",
                    "name": "",
                    "type": "uint256"
                }
            ],
            "stateMutability": "view",
            "type": "function"
        },
        {
            "inputs": [],
            "name": "owner",
            "outputs": [
                {
                    "internalType": "address",
                    "name": "",
                    "type": "address"
                }
            ],
            "stateMutability": "view",
            "type": "function"
        },
        {
            "inputs": [
                {
                    "internalType": "uint256",
                    "name": "_data",
                    "type": "uint256"
                }
            ],
            "name": "setData",
            "outputs": [],
            "stateMutability": "nonpayable",
            "type": "function"
        }
    ],
    "bytecode": "608060405234801561001057600080fd5b50600080546001600160a01b03191633179055610163806100326000396000f3fe608060405234801561001057600080fd5b50600436106100415760003560e01c80635b4b73a91461004657806373d4a13a1461005b5780638da5cb5b14610077575b600080fd5b610059610054366004610114565b6100a2565b005b61006460015481565b6040519081526020015b60405180910390f35b60005461008a906001600160a01b031681565b6040516001600160a01b03909116815260200161006e565b6000546001600160a01b0316331461010f5760405162461bcd60e51b815260206004820152602660248201527f4f6e6c7920746865206f776e65722063616e2063616c6c20746869732066756e60448201526531ba34b7b71760d11b606482015260840160405180910390fd5b600155565b60006020828403121561012657600080fd5b503591905056fea2646970667358221220ed1967a3c0b2ac765656be48de9ca0482836a7188ed61b5b3760b9a0549d153664736f6c63430008130033",
    "sourcePath": "/home/jaz/Documents/ACADEMICS/SOLIDITY/ADVANCING/UsingInheritance.sol",
    "compiler": {
        "name": "solc",
        "version": "0.8.19+commit.7dd6d404"
    },
    "functionHashes": {
        "data()": "73d4a13a",
        "owner()": "8da5cb5b",
        "setData(uint256)": "5b4b73a9"
    },
    "gasEstimates": {
        "creation": {
            "codeDepositCost": "71000",
            "executionCost": "24358",
            "totalCost": "95358"
        },
        "external": {
            "data()": "2284",
            "owner()": "2359",
            "setData(uint256)": "24442"
        }
    }
}