{
    "contractName": "MyContract",
    "abi": [
        {
            "inputs": [
                {
                    "internalType": "string",
                    "name": "_firstName",
                    "type": "string"
                },
                {
                    "internalType": "string",
                    "name": "_lastName",
                    "type": "string"
                }
            ],
            "name": "addPerson",
            "outputs": [],
            "stateMutability": "nonpayable",
            "type": "function"
        },
        {
            "inputs": [
                {
                    "internalType": "uint256",
                    "name": "",
                    "type": "uint256"
                }
            ],
            "name": "people",
            "outputs": [
                {
                    "internalType": "string",
                    "name": "_firstName",
                    "type": "string"
                },
                {
                    "internalType": "string",
                    "name": "_lastName",
                    "type": "string"
                }
            ],
            "stateMutability": "view",
            "type": "function"
        }
    ],
    "bytecode": "608060405234801561001057600080fd5b50610544806100206000396000f3fe608060405234801561001057600080fd5b50600436106100365760003560e01c806322f5b58d1461003b5780639e7a13ad14610050575b600080fd5b61004e6100493660046102d4565b61007a565b005b61006361005e366004610338565b6100ed565b604051610071929190610397565b60405180910390f35b604080518082019091528281526020810182905260008054600181018255908052815160029091027f290decd9548b62a8d60345a988386fc84ba6bc95484008f6362f93160ef3e563019081906100d1908261044e565b50602082015160018201906100e6908261044e565b5050505050565b600081815481106100fd57600080fd5b9060005260206000209060020201600091509050806000018054610120906103c5565b80601f016020809104026020016040519081016040528092919081815260200182805461014c906103c5565b80156101995780601f1061016e57610100808354040283529160200191610199565b820191906000526020600020905b81548152906001019060200180831161017c57829003601f168201915b5050505050908060010180546101ae906103c5565b80601f01602080910402602001604051908101604052809291908181526020018280546101da906103c5565b80156102275780601f106101fc57610100808354040283529160200191610227565b820191906000526020600020905b81548152906001019060200180831161020a57829003601f168201915b5050505050905082565b634e487b7160e01b600052604160045260246000fd5b600082601f83011261025857600080fd5b813567ffffffffffffffff8082111561027357610273610231565b604051601f8301601f19908116603f0116810190828211818310171561029b5761029b610231565b816040528381528660208588010111156102b457600080fd5b836020870160208301376000602085830101528094505050505092915050565b600080604083850312156102e757600080fd5b823567ffffffffffffffff808211156102ff57600080fd5b61030b86838701610247565b9350602085013591508082111561032157600080fd5b5061032e85828601610247565b9150509250929050565b60006020828403121561034a57600080fd5b5035919050565b6000815180845260005b818110156103775760208185018101518683018201520161035b565b506000602082860101526020601f19601f83011685010191505092915050565b6040815260006103aa6040830185610351565b82810360208401526103bc8185610351565b95945050505050565b600181811c908216806103d957607f821691505b6020821081036103f957634e487b7160e01b600052602260045260246000fd5b50919050565b601f82111561044957600081815260208120601f850160051c810160208610156104265750805b601f850160051c820191505b8181101561044557828155600101610432565b5050505b505050565b815167ffffffffffffffff81111561046857610468610231565b61047c8161047684546103c5565b846103ff565b602080601f8311600181146104b157600084156104995750858301515b600019600386901b1c1916600185901b178555610445565b600085815260208120601f198616915b828110156104e0578886015182559484019460019091019084016104c1565b50858210156104fe5787850151600019600388901b60f8161c191681555b5050505050600190811b0190555056fea2646970667358221220e21a4ef7dccf2ab8fba335886069f4360df56eb66356e4d712c2f6d65ce83e8b64736f6c63430008130033",
    "sourcePath": "/home/jaz/Documents/ACADEMICS/SOLIDITY/ADVANCING/Structures.sol",
    "compiler": {
        "name": "solc",
        "version": "0.8.19+commit.7dd6d404"
    },
    "functionHashes": {
        "addPerson(string,string)": "22f5b58d",
        "people(uint256)": "9e7a13ad"
    },
    "gasEstimates": {
        "creation": {
            "codeDepositCost": "269600",
            "executionCost": "312",
            "totalCost": "269912"
        },
        "external": {
            "addPerson(string,string)": "infinite",
            "people(uint256)": "infinite"
        }
    }
}