{
    "contractName": "ReceiverPays",
    "abi": [
        {
            "inputs": [],
            "stateMutability": "payable",
            "type": "constructor"
        },
        {
            "inputs": [
                {
                    "internalType": "uint256",
                    "name": "amount",
                    "type": "uint256"
                },
                {
                    "internalType": "uint256",
                    "name": "nonce",
                    "type": "uint256"
                },
                {
                    "internalType": "bytes",
                    "name": "signature",
                    "type": "bytes"
                }
            ],
            "name": "claimPayment",
            "outputs": [],
            "stateMutability": "nonpayable",
            "type": "function"
        },
        {
            "inputs": [],
            "name": "shutdown",
            "outputs": [],
            "stateMutability": "nonpayable",
            "type": "function"
        }
    ],
    "bytecode": "6080604052600080546001600160a01b03191633179055610387806100256000396000f3fe608060405234801561001057600080fd5b50600436106100365760003560e01c8063a90ae8871461003b578063fc0e74d114610050575b600080fd5b61004e61004936600461028d565b610058565b005b61004e61017c565b60008281526001602052604090205460ff161561007457600080fd5b6000828152600160208181526040808420805460ff191690931790925581516bffffffffffffffffffffffff1933606090811b821683850152603483018990526054830188905230901b166074820152825180820360680181526088820184528051908301207f19457468657265756d205369676e6564204d6573736167653a0a33320000000060a883015260c4808301919091528351808303909101815260e4909101909252815191012090546001600160a01b031661013582846101c9565b6001600160a01b03161461014857600080fd5b604051339085156108fc029086906000818181858888f19350505050158015610175573d6000803e3d6000fd5b5050505050565b6000546001600160a01b0316331461019357600080fd5b60405133904790829082156108fc029083906000818181858888f193505050501580156101c4573d6000803e3d6000fd5b505050565b6000806000806101d885610248565b6040805160008152602081018083528b905260ff8516918101919091526060810183905260808101829052929550909350915060019060a0016020604051602081039080840390855afa158015610233573d6000803e3d6000fd5b5050604051601f190151979650505050505050565b6000806000835160411461025b57600080fd5b5050506020810151604082015160609092015160001a92909190565b634e487b7160e01b600052604160045260246000fd5b6000806000606084860312156102a257600080fd5b8335925060208401359150604084013567ffffffffffffffff808211156102c857600080fd5b818601915086601f8301126102dc57600080fd5b8135818111156102ee576102ee610277565b604051601f8201601f19908116603f0116810190838211818310171561031657610316610277565b8160405282815289602084870101111561032f57600080fd5b826020860160208301376000602084830101528095505050505050925092509256fea26469706673582212204dfb1bcb55fa7b5921b886518402d31a0da6d6113a99524abadc774ffabec7aa64736f6c63430008130033",
    "sourcePath": "/home/jaz/Documents/ACADEMICS/SOLIDITY/PROJECTS/SAFE-REMOTE -PURCHACE/ReceiverPays.sol",
    "compiler": {
        "name": "solc",
        "version": "0.8.19+commit.7dd6d404"
    },
    "functionHashes": {
        "claimPayment(uint256,uint256,bytes)": "a90ae887",
        "shutdown()": "fc0e74d1"
    },
    "gasEstimates": {
        "creation": {
            "codeDepositCost": "180600",
            "executionCost": "24437",
            "totalCost": "205037"
        },
        "external": {
            "claimPayment(uint256,uint256,bytes)": "infinite",
            "shutdown()": "infinite"
        },
        "internal": {
            "prefixed(bytes32)": "infinite",
            "recoverSigner(bytes32,bytes memory)": "infinite",
            "splitSignature(bytes memory)": "infinite"
        }
    }
}