{
    "contractName": "SimplePaymentChannel",
    "abi": [
        {
            "inputs": [
                {
                    "internalType": "address payable",
                    "name": "recipientAddress",
                    "type": "address"
                },
                {
                    "internalType": "uint256",
                    "name": "duration",
                    "type": "uint256"
                }
            ],
            "stateMutability": "payable",
            "type": "constructor"
        },
        {
            "inputs": [],
            "name": "claimTimeout",
            "outputs": [],
            "stateMutability": "nonpayable",
            "type": "function"
        },
        {
            "inputs": [
                {
                    "internalType": "uint256",
                    "name": "amount",
                    "type": "uint256"
                },
                {
                    "internalType": "bytes",
                    "name": "signature",
                    "type": "bytes"
                }
            ],
            "name": "close",
            "outputs": [],
            "stateMutability": "nonpayable",
            "type": "function"
        },
        {
            "inputs": [],
            "name": "expiration",
            "outputs": [
                {
                    "internalType": "uint256",
                    "name": "",
                    "type": "uint256"
                }
            ],
            "stateMutability": "view",
            "type": "function"
        },
        {
            "inputs": [
                {
                    "internalType": "uint256",
                    "name": "newExpiration",
                    "type": "uint256"
                }
            ],
            "name": "extend",
            "outputs": [],
            "stateMutability": "nonpayable",
            "type": "function"
        },
        {
            "inputs": [],
            "name": "recipient",
            "outputs": [
                {
                    "internalType": "address payable",
                    "name": "",
                    "type": "address"
                }
            ],
            "stateMutability": "view",
            "type": "function"
        },
        {
            "inputs": [],
            "name": "sender",
            "outputs": [
                {
                    "internalType": "address payable",
                    "name": "",
                    "type": "address"
                }
            ],
            "stateMutability": "view",
            "type": "function"
        }
    ],
    "bytecode": "608060405260405161056b38038061056b83398101604081905261002291610060565b60008054336001600160a01b031991821617909155600180549091166001600160a01b038416179055610055814261009a565b600255506100c19050565b6000806040838503121561007357600080fd5b82516001600160a01b038116811461008a57600080fd5b6020939093015192949293505050565b808201808211156100bb57634e487b7160e01b600052601160045260246000fd5b92915050565b61049b806100d06000396000f3fe608060405234801561001057600080fd5b50600436106100625760003560e01c80630e1da6c314610067578063415ffba7146100715780634665096d1461008457806366d003ac146100a057806367e404ce146100cb5780639714378c146100de575b600080fd5b61006f6100f1565b005b61006f61007f366004610391565b61013d565b61008d60025481565b6040519081526020015b60405180910390f35b6001546100b3906001600160a01b031681565b6040516001600160a01b039091168152602001610097565b6000546100b3906001600160a01b031681565b61006f6100ec36600461044c565b6101e1565b60025442101561010057600080fd5b600080546040516001600160a01b03909116914780156108fc02929091818181858888f1935050505015801561013a573d6000803e3d6000fd5b50565b6001546001600160a01b0316331461015457600080fd5b61015e828261020b565b61016757600080fd5b6001546040516001600160a01b039091169083156108fc029084906000818181858888f193505050501580156101a1573d6000803e3d6000fd5b50600080546040516001600160a01b03909116914780156108fc02929091818181858888f193505050501580156101dc573d6000803e3d6000fd5b505050565b6000546001600160a01b031633146101f857600080fd5b600254811161020657600080fd5b600255565b6040516bffffffffffffffffffffffff193060601b1660208201526034810183905260009081906102a290605401604051602081830303815290604052805190602001206040517f19457468657265756d205369676e6564204d6573736167653a0a3332000000006020820152603c8101829052600090605c01604051602081830303815290604052805190602001209050919050565b6000549091506001600160a01b03166102bb82856102cd565b6001600160a01b031614949350505050565b6000806000806102dc8561034c565b6040805160008152602081018083528b905260ff8516918101919091526060810183905260808101829052929550909350915060019060a0016020604051602081039080840390855afa158015610337573d6000803e3d6000fd5b5050604051601f190151979650505050505050565b6000806000835160411461035f57600080fd5b5050506020810151604082015160609092015160001a92909190565b634e487b7160e01b600052604160045260246000fd5b600080604083850312156103a457600080fd5b82359150602083013567ffffffffffffffff808211156103c357600080fd5b818501915085601f8301126103d757600080fd5b8135818111156103e9576103e961037b565b604051601f8201601f19908116603f011681019083821181831017156104115761041161037b565b8160405282815288602084870101111561042a57600080fd5b8260208601602083013760006020848301015280955050505050509250929050565b60006020828403121561045e57600080fd5b503591905056fea264697066735822122035488f20bee21717604b856451f3aa0941a44cccdadf64e07e639bdeb51692e864736f6c63430008130033",
    "sourcePath": "/home/jaz/Documents/ACADEMICS/SOLIDITY/PROJECTS/SAFE-REMOTE -PURCHACE/PaymentChannel-close.sol",
    "compiler": {
        "name": "solc",
        "version": "0.8.19+commit.7dd6d404"
    },
    "functionHashes": {
        "claimTimeout()": "0e1da6c3",
        "close(uint256,bytes)": "415ffba7",
        "expiration()": "4665096d",
        "extend(uint256)": "9714378c",
        "recipient()": "66d003ac",
        "sender()": "67e404ce"
    },
    "gasEstimates": {
        "creation": {
            "codeDepositCost": "235800",
            "executionCost": "infinite",
            "totalCost": "infinite"
        },
        "external": {
            "claimTimeout()": "infinite",
            "close(uint256,bytes)": "infinite",
            "expiration()": "2306",
            "extend(uint256)": "26675",
            "recipient()": "2381",
            "sender()": "2403"
        },
        "internal": {
            "isValidSignature(uint256,bytes memory)": "infinite",
            "prefixed(bytes32)": "infinite",
            "recoverSigner(bytes32,bytes memory)": "infinite",
            "splitSignature(bytes memory)": "infinite"
        }
    }
}