{
    "contractName": "SimpleStorage",
    "abi": [
        {
            "inputs": [],
            "name": "Baddex",
            "outputs": [
                {
                    "internalType": "uint256",
                    "name": "favoriteNumber",
                    "type": "uint256"
                },
                {
                    "internalType": "string",
                    "name": "name",
                    "type": "string"
                }
            ],
            "stateMutability": "view",
            "type": "function"
        },
        {
            "inputs": [],
            "name": "Jonas",
            "outputs": [
                {
                    "internalType": "uint256",
                    "name": "favoriteNumber",
                    "type": "uint256"
                },
                {
                    "internalType": "string",
                    "name": "name",
                    "type": "string"
                }
            ],
            "stateMutability": "view",
            "type": "function"
        },
        {
            "inputs": [],
            "name": "Noel",
            "outputs": [
                {
                    "internalType": "uint256",
                    "name": "favoriteNumber",
                    "type": "uint256"
                },
                {
                    "internalType": "string",
                    "name": "name",
                    "type": "string"
                }
            ],
            "stateMutability": "view",
            "type": "function"
        },
        {
            "inputs": [
                {
                    "internalType": "string",
                    "name": "_name",
                    "type": "string"
                },
                {
                    "internalType": "uint256",
                    "name": "_favoriteNumber",
                    "type": "uint256"
                }
            ],
            "name": "addPerson",
            "outputs": [],
            "stateMutability": "nonpayable",
            "type": "function"
        },
        {
            "inputs": [
                {
                    "internalType": "uint256",
                    "name": "",
                    "type": "uint256"
                }
            ],
            "name": "bigBros",
            "outputs": [
                {
                    "internalType": "uint256",
                    "name": "favoriteNumber",
                    "type": "uint256"
                },
                {
                    "internalType": "string",
                    "name": "name",
                    "type": "string"
                }
            ],
            "stateMutability": "view",
            "type": "function"
        },
        {
            "inputs": [],
            "name": "retrieve",
            "outputs": [
                {
                    "internalType": "uint256",
                    "name": "",
                    "type": "uint256"
                }
            ],
            "stateMutability": "view",
            "type": "function"
        },
        {
            "inputs": [
                {
                    "internalType": "uint256",
                    "name": "_favoriteNumber",
                    "type": "uint256"
                }
            ],
            "name": "store",
            "outputs": [],
            "stateMutability": "nonpayable",
            "type": "function"
        },
        {
            "inputs": [],
            "name": "userFavoriteNumber",
            "outputs": [
                {
                    "internalType": "uint256",
                    "name": "",
                    "type": "uint256"
                }
            ],
            "stateMutability": "view",
            "type": "function"
        }
    ],
    "bytecode": "600a6080818152610100604052600560c0908152644a6f6e617360d81b60e05260a081905260029283559091906003906100399082610182565b5050604080518082018252601781528151808301909252600782526610985919195e1d60ca1b602083810191909152810182905280516004908155909250906005906100859082610182565b50506040805180820182526015815281518083019092526004825263139bd95b60e21b602083810191909152810182905280516006908155909250906007906100ce9082610182565b5050503480156100dd57600080fd5b50610241565b634e487b7160e01b600052604160045260246000fd5b600181811c9082168061010d57607f821691505b60208210810361012d57634e487b7160e01b600052602260045260246000fd5b50919050565b601f82111561017d57600081815260208120601f850160051c8101602086101561015a5750805b601f850160051c820191505b8181101561017957828155600101610166565b5050505b505050565b81516001600160401b0381111561019b5761019b6100e3565b6101af816101a984546100f9565b84610133565b602080601f8311600181146101e457600084156101cc5750858301515b600019600386901b1c1916600185901b178555610179565b600085815260208120601f198616915b82811015610213578886015182559484019460019091019084016101f4565b50858210156102315787850151600019600388901b60f8161c191681555b5050505050600190811b01905550565b610547806102506000396000f3fe608060405234801561001057600080fd5b50600436106100885760003560e01c80636f760f411161005b5780636f760f41146100db578063a2f77900146100ee578063e4288978146100f6578063f00285ee146100ff57600080fd5b806310714e891461008d5780632e64cec1146100ac5780635a37958b146100be5780636057361d146100c6575b600080fd5b610095610112565b6040516100a392919061028e565b60405180910390f35b6000545b6040519081526020016100a3565b6100956101a9565b6100d96100d43660046102e4565b600055565b005b6100d96100e9366004610313565b6101bd565b610095610245565b6100b060005481565b61009561010d3660046102e4565b610259565b6004805460058054919291610126906103c8565b80601f0160208091040260200160405190810160405280929190818152602001828054610152906103c8565b801561019f5780601f106101745761010080835404028352916020019161019f565b820191906000526020600020905b81548152906001019060200180831161018257829003601f168201915b5050505050905082565b6006805460078054919291610126906103c8565b6040805180820190915281815260208101838152600180548082018255600091909152825160029091027fb10e2d527612073b26eecdfd717e6a320cf44b4afac2b0732d9fcbe2b7fa0cf68101918255915190917fb10e2d527612073b26eecdfd717e6a320cf44b4afac2b0732d9fcbe2b7fa0cf7019061023e9082610451565b5050505050565b6002805460038054919291610126906103c8565b6001818154811061026957600080fd5b60009182526020909120600290910201805460018201805491935090610126906103c8565b82815260006020604081840152835180604085015260005b818110156102c2578581018301518582016060015282016102a6565b506000606082860101526060601f19601f830116850101925050509392505050565b6000602082840312156102f657600080fd5b5035919050565b634e487b7160e01b600052604160045260246000fd5b6000806040838503121561032657600080fd5b823567ffffffffffffffff8082111561033e57600080fd5b818501915085601f83011261035257600080fd5b813581811115610364576103646102fd565b604051601f8201601f19908116603f0116810190838211818310171561038c5761038c6102fd565b816040528281528860208487010111156103a557600080fd5b826020860160208301376000602093820184015298969091013596505050505050565b600181811c908216806103dc57607f821691505b6020821081036103fc57634e487b7160e01b600052602260045260246000fd5b50919050565b601f82111561044c57600081815260208120601f850160051c810160208610156104295750805b601f850160051c820191505b8181101561044857828155600101610435565b5050505b505050565b815167ffffffffffffffff81111561046b5761046b6102fd565b61047f8161047984546103c8565b84610402565b602080601f8311600181146104b4576000841561049c5750858301515b600019600386901b1c1916600185901b178555610448565b600085815260208120601f198616915b828110156104e3578886015182559484019460019091019084016104c4565b50858210156105015787850151600019600388901b60f8161c191681555b5050505050600190811b0190555056fea2646970667358221220a6b07d0ebf922c6bc63ffbdbc9ff58e9af1806802ce5425a9d6de829a8eee74f64736f6c63430008130033",
    "sourcePath": "/home/jaz/Documents/ACADEMICS/SOLIDITY/MASTERY/SimpleStorage.sol",
    "compiler": {
        "name": "solc",
        "version": "0.8.19+commit.7dd6d404"
    },
    "functionHashes": {
        "Baddex()": "10714e89",
        "Jonas()": "a2f77900",
        "Noel()": "5a37958b",
        "addPerson(string,uint256)": "6f760f41",
        "bigBros(uint256)": "f00285ee",
        "retrieve()": "2e64cec1",
        "store(uint256)": "6057361d",
        "userFavoriteNumber()": "e4288978"
    },
    "gasEstimates": {
        "creation": {
            "codeDepositCost": "270200",
            "executionCost": "infinite",
            "totalCost": "infinite"
        },
        "external": {
            "Baddex()": "infinite",
            "Jonas()": "infinite",
            "Noel()": "infinite",
            "addPerson(string,uint256)": "infinite",
            "bigBros(uint256)": "infinite",
            "retrieve()": "2304",
            "store(uint256)": "22379",
            "userFavoriteNumber()": "2339"
        }
    }
}