{
    "contractName": "Token",
    "abi": [
        {
            "anonymous": false,
            "inputs": [
                {
                    "indexed": false,
                    "internalType": "address",
                    "name": "owner",
                    "type": "address"
                },
                {
                    "indexed": false,
                    "internalType": "address",
                    "name": "spender",
                    "type": "address"
                },
                {
                    "indexed": false,
                    "internalType": "uint256",
                    "name": "amount",
                    "type": "uint256"
                }
            ],
            "name": "Approval",
            "type": "event"
        },
        {
            "anonymous": false,
            "inputs": [
                {
                    "indexed": false,
                    "internalType": "address",
                    "name": "from",
                    "type": "address"
                },
                {
                    "indexed": false,
                    "internalType": "address",
                    "name": "to",
                    "type": "address"
                },
                {
                    "indexed": false,
                    "internalType": "uint256",
                    "name": "amount",
                    "type": "uint256"
                }
            ],
            "name": "Transfer",
            "type": "event"
        },
        {
            "inputs": [
                {
                    "internalType": "address",
                    "name": "spender",
                    "type": "address"
                },
                {
                    "internalType": "uint256",
                    "name": "tokens",
                    "type": "uint256"
                }
            ],
            "name": "approve",
            "outputs": [
                {
                    "internalType": "bool",
                    "name": "success",
                    "type": "bool"
                }
            ],
            "stateMutability": "nonpayable",
            "type": "function"
        },
        {
            "inputs": [
                {
                    "internalType": "address",
                    "name": "tokenOwner",
                    "type": "address"
                }
            ],
            "name": "balanceOf",
            "outputs": [
                {
                    "internalType": "uint256",
                    "name": "balance",
                    "type": "uint256"
                }
            ],
            "stateMutability": "view",
            "type": "function"
        },
        {
            "inputs": [
                {
                    "internalType": "address",
                    "name": "to",
                    "type": "address"
                },
                {
                    "internalType": "uint256",
                    "name": "amount",
                    "type": "uint256"
                }
            ],
            "name": "transfer",
            "outputs": [
                {
                    "internalType": "bool",
                    "name": "success",
                    "type": "bool"
                }
            ],
            "stateMutability": "nonpayable",
            "type": "function"
        },
        {
            "inputs": [
                {
                    "internalType": "address",
                    "name": "from",
                    "type": "address"
                },
                {
                    "internalType": "address",
                    "name": "to",
                    "type": "address"
                },
                {
                    "internalType": "uint256",
                    "name": "amount",
                    "type": "uint256"
                }
            ],
            "name": "transferFrom",
            "outputs": [
                {
                    "internalType": "bool",
                    "name": "success",
                    "type": "bool"
                }
            ],
            "stateMutability": "nonpayable",
            "type": "function"
        }
    ],
    "bytecode": "608060405234801561001057600080fd5b5061047f806100206000396000f3fe608060405234801561001057600080fd5b506004361061004c5760003560e01c8063095ea7b31461005157806323b872dd1461007957806370a082311461008c578063a9059cbb146100c3575b600080fd5b61006461005f366004610385565b6100d6565b60405190151581526020015b60405180910390f35b6100646100873660046103af565b610197565b6100b561009a3660046103eb565b6001600160a01b031660009081526020819052604090205490565b604051908152602001610070565b6100646100d1366004610385565b610262565b3360009081526001602090815260408083206001600160a01b0386168452909152812054156101255760405162461bcd60e51b8152602060048201526000602482015260440160405180910390fd5b3360008181526001602090815260408083206001600160a01b0388168085529083529281902086905580519384529083019190915281018390527f8c5be1e5ebec7d5bd14f71427d1e84f3dd0314c0f7b2291e5b200ac8c7c3b925906060015b60405180910390a15060015b92915050565b6001600160a01b03831660009081526001602090815260408083203384529091528120548211156101c757600080fd5b6001600160a01b0384166000908152600160209081526040808320338452909152812080548492906101fa908490610423565b9091555061020d905060008585856102b6565b604080516001600160a01b038087168252851660208201529081018390527fddf252ad1be2c89b69c2b068fc378daa952ba7f163c4a11628f55a4df523b3ef9060600160405180910390a15060019392505050565b6000610270813385856102b6565b604080513381526001600160a01b03851660208201529081018390527fddf252ad1be2c89b69c2b068fc378daa952ba7f163c4a11628f55a4df523b3ef90606001610185565b6001600160a01b0383166000908152602085905260409020548111156102db57600080fd5b6001600160a01b0382166000908152602085905260409020546102fe8282610436565b101561030957600080fd5b6001600160a01b03831660009081526020859052604081208054839290610331908490610423565b90915550506001600160a01b0382166000908152602085905260408120805483929061035e908490610436565b909155505050505050565b80356001600160a01b038116811461038057600080fd5b919050565b6000806040838503121561039857600080fd5b6103a183610369565b946020939093013593505050565b6000806000606084860312156103c457600080fd5b6103cd84610369565b92506103db60208501610369565b9150604084013590509250925092565b6000602082840312156103fd57600080fd5b61040682610369565b9392505050565b634e487b7160e01b600052601160045260246000fd5b818103818111156101915761019161040d565b808201808211156101915761019161040d56fea2646970667358221220f027c57139af7df3a9c49c07c01acfe8d99656dd5feaea349672f52dfabafc7964736f6c63430008130033",
    "sourcePath": "/home/jaz/Documents/ACADEMICS/SOLIDITY/PROJECTS/SAFE-REMOTE -PURCHACE/ModularContract.sol",
    "compiler": {
        "name": "solc",
        "version": "0.8.19+commit.7dd6d404"
    },
    "functionHashes": {
        "approve(address,uint256)": "095ea7b3",
        "balanceOf(address)": "70a08231",
        "transfer(address,uint256)": "a9059cbb",
        "transferFrom(address,address,uint256)": "23b872dd"
    },
    "gasEstimates": {
        "creation": {
            "codeDepositCost": "230200",
            "executionCost": "269",
            "totalCost": "230469"
        },
        "external": {
            "approve(address,uint256)": "26529",
            "balanceOf(address)": "2562",
            "transfer(address,uint256)": "infinite",
            "transferFrom(address,address,uint256)": "infinite"
        }
    }
}